{
  "_format": "hh-sol-artifact-1",
  "contractName": "AIDisclosure",
  "sourceName": "contracts/AIDisclosure.sol",
  "abi": [
    {
      "anonymous": false,
      "inputs": [
        {
          "indexed": true,
          "internalType": "bytes32",
          "name": "contentHash",
          "type": "bytes32"
        },
        {
          "indexed": true,
          "internalType": "address",
          "name": "creator",
          "type": "address"
        },
        {
          "indexed": false,
          "internalType": "bool",
          "name": "aiUsed",
          "type": "bool"
        },
        {
          "indexed": false,
          "internalType": "string",
          "name": "aiToolName",
          "type": "string"
        },
        {
          "indexed": false,
          "internalType": "uint256",
          "name": "timestamp",
          "type": "uint256"
        }
      ],
      "name": "DisclosureRecorded",
      "type": "event"
    },
    {
      "inputs": [
        {
          "internalType": "address",
          "name": "",
          "type": "address"
        },
        {
          "internalType": "uint256",
          "name": "",
          "type": "uint256"
        }
      ],
      "name": "creatorHistory",
      "outputs": [
        {
          "internalType": "bytes32",
          "name": "",
          "type": "bytes32"
        }
      ],
      "stateMutability": "view",
      "type": "function"
    },
    {
      "inputs": [
        {
          "internalType": "bytes32",
          "name": "",
          "type": "bytes32"
        }
      ],
      "name": "disclosures",
      "outputs": [
        {
          "internalType": "bytes32",
          "name": "contentHash",
          "type": "bytes32"
        },
        {
          "internalType": "bool",
          "name": "aiUsed",
          "type": "bool"
        },
        {
          "internalType": "string",
          "name": "aiToolName",
          "type": "string"
        },
        {
          "internalType": "string",
          "name": "aiUsageType",
          "type": "string"
        },
        {
          "internalType": "address",
          "name": "creator",
          "type": "address"
        },
        {
          "internalType": "uint256",
          "name": "timestamp",
          "type": "uint256"
        },
        {
          "internalType": "string",
          "name": "metadataURI",
          "type": "string"
        },
        {
          "internalType": "bool",
          "name": "exists",
          "type": "bool"
        }
      ],
      "stateMutability": "view",
      "type": "function"
    },
    {
      "inputs": [
        {
          "internalType": "address",
          "name": "creator",
          "type": "address"
        }
      ],
      "name": "getCreatorHistory",
      "outputs": [
        {
          "internalType": "bytes32[]",
          "name": "",
          "type": "bytes32[]"
        }
      ],
      "stateMutability": "view",
      "type": "function"
    },
    {
      "inputs": [
        {
          "internalType": "bytes32",
          "name": "contentHash",
          "type": "bytes32"
        },
        {
          "internalType": "bool",
          "name": "aiUsed",
          "type": "bool"
        },
        {
          "internalType": "string",
          "name": "aiToolName",
          "type": "string"
        },
        {
          "internalType": "string",
          "name": "aiUsageType",
          "type": "string"
        },
        {
          "internalType": "string",
          "name": "metadataURI",
          "type": "string"
        }
      ],
      "name": "recordDisclosure",
      "outputs": [],
      "stateMutability": "nonpayable",
      "type": "function"
    },
    {
      "inputs": [
        {
          "internalType": "bytes32",
          "name": "contentHash",
          "type": "bytes32"
        }
      ],
      "name": "verifyDisclosure",
      "outputs": [
        {
          "internalType": "bool",
          "name": "exists",
          "type": "bool"
        },
        {
          "internalType": "bool",
          "name": "aiUsed",
          "type": "bool"
        },
        {
          "internalType": "string",
          "name": "aiToolName",
          "type": "string"
        },
        {
          "internalType": "string",
          "name": "aiUsageType",
          "type": "string"
        },
        {
          "internalType": "address",
          "name": "creator",
          "type": "address"
        },
        {
          "internalType": "uint256",
          "name": "timestamp",
          "type": "uint256"
        },
        {
          "internalType": "string",
          "name": "metadataURI",
          "type": "string"
        }
      ],
      "stateMutability": "view",
      "type": "function"
    }
  ],
  "bytecode": "0x608060405234801561001057600080fd5b50611462806100206000396000f3fe608060405234801561001057600080fd5b50600436106100575760003560e01c806320f053e21461005c5780632f801ccd146100935780635b7f8349146100c3578063b068ab96146100f3578063b560cf7614610129575b600080fd5b61007660048036038101906100719190610a20565b610145565b60405161008a989796959493929190610b61565b60405180910390f35b6100ad60048036038101906100a89190610c4c565b61035f565b6040516100ba9190610c8c565b60405180910390f35b6100dd60048036038101906100d89190610ca7565b610390565b6040516100ea9190610d92565b60405180910390f35b61010d60048036038101906101089190610a20565b610427565b6040516101209796959493929190610db4565b60405180910390f35b610143600480360381019061013e9190610ec9565b610660565b005b60006020528060005260406000206000915090508060000154908060010160009054906101000a900460ff169080600201805461018190610fd4565b80601f01602080910402602001604051908101604052809291908181526020018280546101ad90610fd4565b80156101fa5780601f106101cf576101008083540402835291602001916101fa565b820191906000526020600020905b8154815290600101906020018083116101dd57829003601f168201915b50505050509080600301805461020f90610fd4565b80601f016020809104026020016040519081016040528092919081815260200182805461023b90610fd4565b80156102885780601f1061025d57610100808354040283529160200191610288565b820191906000526020600020905b81548152906001019060200180831161026b57829003601f168201915b5050505050908060040160009054906101000a900473ffffffffffffffffffffffffffffffffffffffff16908060050154908060060180546102c990610fd4565b80601f01602080910402602001604051908101604052809291908181526020018280546102f590610fd4565b80156103425780601f1061031757610100808354040283529160200191610342565b820191906000526020600020905b81548152906001019060200180831161032557829003601f168201915b5050505050908060070160009054906101000a900460ff16905088565b6001602052816000526040600020818154811061037b57600080fd5b90600052602060002001600091509150505481565b6060600160008373ffffffffffffffffffffffffffffffffffffffff1673ffffffffffffffffffffffffffffffffffffffff16815260200190815260200160002080548060200260200160405190810160405280929190818152602001828054801561041b57602002820191906000526020600020905b815481526020019060010190808311610407575b50505050509050919050565b600080606080600080606060008060008a815260200190815260200160002090508060070160009054906101000a900460ff168160010160009054906101000a900460ff1682600201836003018460040160009054906101000a900473ffffffffffffffffffffffffffffffffffffffff168560050154866006018480546104ae90610fd4565b80601f01602080910402602001604051908101604052809291908181526020018280546104da90610fd4565b80156105275780601f106104fc57610100808354040283529160200191610527565b820191906000526020600020905b81548152906001019060200180831161050a57829003601f168201915b5050505050945083805461053a90610fd4565b80601f016020809104026020016040519081016040528092919081815260200182805461056690610fd4565b80156105b35780601f10610588576101008083540402835291602001916105b3565b820191906000526020600020905b81548152906001019060200180831161059657829003601f168201915b505050505093508080546105c690610fd4565b80601f01602080910402602001604051908101604052809291908181526020018280546105f290610fd4565b801561063f5780601f106106145761010080835404028352916020019161063f565b820191906000526020600020905b81548152906001019060200180831161062257829003601f168201915b50505050509050975097509750975097509750975050919395979092949650565b6000801b88036106a5576040517f08c379a000000000000000000000000000000000000000000000000000000000815260040161069c90611051565b60405180910390fd5b60008089815260200190815260200160002060070160009054906101000a900460ff1615610708576040517f08c379a00000000000000000000000000000000000000000000000000000000081526004016106ff906110e3565b60405180910390fd5b604051806101000160405280898152602001881515815260200187878080601f016020809104026020016040519081016040528093929190818152602001838380828437600081840152601f19601f82011690508083019250505050505050815260200185858080601f016020809104026020016040519081016040528093929190818152602001838380828437600081840152601f19601f8201169050808301925050505050505081526020013373ffffffffffffffffffffffffffffffffffffffff16815260200142815260200183838080601f016020809104026020016040519081016040528093929190818152602001838380828437600081840152601f19601f820116905080830192505050505050508152602001600115158152506000808a81526020019081526020016000206000820151816000015560208201518160010160006101000a81548160ff021916908315150217905550604082015181600201908161087a91906112de565b50606082015181600301908161089091906112de565b5060808201518160040160006101000a81548173ffffffffffffffffffffffffffffffffffffffff021916908373ffffffffffffffffffffffffffffffffffffffff16021790555060a0820151816005015560c08201518160060190816108f791906112de565b5060e08201518160070160006101000a81548160ff021916908315150217905550905050600160003373ffffffffffffffffffffffffffffffffffffffff1673ffffffffffffffffffffffffffffffffffffffff1681526020019081526020016000208890806001815401808255809150506001900390600052602060002001600090919091909150553373ffffffffffffffffffffffffffffffffffffffff16887f9d8f007ad67cc2a0255e7baf57d385216bcd551feed939e4657db9cd95b2e6d7898989426040516109ce94939291906113ec565b60405180910390a35050505050505050565b600080fd5b600080fd5b6000819050919050565b6109fd816109ea565b8114610a0857600080fd5b50565b600081359050610a1a816109f4565b92915050565b600060208284031215610a3657610a356109e0565b5b6000610a4484828501610a0b565b91505092915050565b610a56816109ea565b82525050565b60008115159050919050565b610a7181610a5c565b82525050565b600081519050919050565b600082825260208201905092915050565b60005b83811015610ab1578082015181840152602081019050610a96565b60008484015250505050565b6000601f19601f8301169050919050565b6000610ad982610a77565b610ae38185610a82565b9350610af3818560208601610a93565b610afc81610abd565b840191505092915050565b600073ffffffffffffffffffffffffffffffffffffffff82169050919050565b6000610b3282610b07565b9050919050565b610b4281610b27565b82525050565b6000819050919050565b610b5b81610b48565b82525050565b600061010082019050610b77600083018b610a4d565b610b84602083018a610a68565b8181036040830152610b968189610ace565b90508181036060830152610baa8188610ace565b9050610bb96080830187610b39565b610bc660a0830186610b52565b81810360c0830152610bd88185610ace565b9050610be760e0830184610a68565b9998505050505050505050565b610bfd81610b27565b8114610c0857600080fd5b50565b600081359050610c1a81610bf4565b92915050565b610c2981610b48565b8114610c3457600080fd5b50565b600081359050610c4681610c20565b92915050565b60008060408385031215610c6357610c626109e0565b5b6000610c7185828601610c0b565b9250506020610c8285828601610c37565b9150509250929050565b6000602082019050610ca16000830184610a4d565b92915050565b600060208284031215610cbd57610cbc6109e0565b5b6000610ccb84828501610c0b565b91505092915050565b600081519050919050565b600082825260208201905092915050565b6000819050602082019050919050565b610d09816109ea565b82525050565b6000610d1b8383610d00565b60208301905092915050565b6000602082019050919050565b6000610d3f82610cd4565b610d498185610cdf565b9350610d5483610cf0565b8060005b83811015610d85578151610d6c8882610d0f565b9750610d7783610d27565b925050600181019050610d58565b5085935050505092915050565b60006020820190508181036000830152610dac8184610d34565b905092915050565b600060e082019050610dc9600083018a610a68565b610dd66020830189610a68565b8181036040830152610de88188610ace565b90508181036060830152610dfc8187610ace565b9050610e0b6080830186610b39565b610e1860a0830185610b52565b81810360c0830152610e2a8184610ace565b905098975050505050505050565b610e4181610a5c565b8114610e4c57600080fd5b50565b600081359050610e5e81610e38565b92915050565b600080fd5b600080fd5b600080fd5b60008083601f840112610e8957610e88610e64565b5b8235905067ffffffffffffffff811115610ea657610ea5610e69565b5b602083019150836001820283011115610ec257610ec1610e6e565b5b9250929050565b60008060008060008060008060a0898b031215610ee957610ee86109e0565b5b6000610ef78b828c01610a0b565b9850506020610f088b828c01610e4f565b975050604089013567ffffffffffffffff811115610f2957610f286109e5565b5b610f358b828c01610e73565b9650965050606089013567ffffffffffffffff811115610f5857610f576109e5565b5b610f648b828c01610e73565b9450945050608089013567ffffffffffffffff811115610f8757610f866109e5565b5b610f938b828c01610e73565b92509250509295985092959890939650565b7f4e487b7100000000000000000000000000000000000000000000000000000000600052602260045260246000fd5b60006002820490506001821680610fec57607f821691505b602082108103610fff57610ffe610fa5565b5b50919050565b7f496e76616c696420636f6e74656e742068617368000000000000000000000000600082015250565b600061103b601483610a82565b915061104682611005565b602082019050919050565b6000602082019050818103600083015261106a8161102e565b9050919050565b7f446973636c6f7375726520616c7265616479207265636f7264656420666f722060008201527f7468697320636f6e74656e740000000000000000000000000000000000000000602082015250565b60006110cd602c83610a82565b91506110d882611071565b604082019050919050565b600060208201905081810360008301526110fc816110c0565b9050919050565b7f4e487b7100000000000000000000000000000000000000000000000000000000600052604160045260246000fd5b60008190508160005260206000209050919050565b60006020601f8301049050919050565b600082821b905092915050565b6000600883026111947fffffffffffffffffffffffffffffffffffffffffffffffffffffffffffffffff82611157565b61119e8683611157565b95508019841693508086168417925050509392505050565b6000819050919050565b60006111db6111d66111d184610b48565b6111b6565b610b48565b9050919050565b6000819050919050565b6111f5836111c0565b611209611201826111e2565b848454611164565b825550505050565b600090565b61121e611211565b6112298184846111ec565b505050565b5b8181101561124d57611242600082611216565b60018101905061122f565b5050565b601f8211156112925761126381611132565b61126c84611147565b8101602085101561127b578190505b61128f61128785611147565b83018261122e565b50505b505050565b600082821c905092915050565b60006112b560001984600802611297565b1980831691505092915050565b60006112ce83836112a4565b9150826002028217905092915050565b6112e782610a77565b67ffffffffffffffff811115611300576112ff611103565b5b61130a8254610fd4565b611315828285611251565b600060209050601f8311600181146113485760008415611336578287015190505b61134085826112c2565b8655506113a8565b601f19841661135686611132565b60005b8281101561137e57848901518255600182019150602085019450602081019050611359565b8683101561139b5784890151611397601f8916826112a4565b8355505b6001600288020188555050505b505050505050565b82818337600083830152505050565b60006113cb8385610a82565b93506113d88385846113b0565b6113e183610abd565b840190509392505050565b60006060820190506114016000830187610a68565b81810360208301526114148185876113bf565b90506114236040830184610b52565b9594505050505056fea26469706673582212201dd9c0ec51a4cc9c7f0473c06dc0ce9363d4a9608a210d478cb5784279819ea464736f6c63430008140033",
  "linkReferences": {},
  "deployedLinkReferences": {}
}